{
  "_format": "hh-sol-artifact-1",
  "contractName": "MultiEscrowManager",
  "sourceName": "contracts/MultiEscrowManager.sol",
  "abi": [
    {
      "inputs": [],
      "stateMutability": "nonpayable",
      "type": "constructor"
    },
    {
      "anonymous": false,
      "inputs": [
        {
          "indexed": true,
          "internalType": "uint256",
          "name": "id",
          "type": "uint256"
        },
        {
          "indexed": false,
          "internalType": "address",
          "name": "winner",
          "type": "address"
        }
      ],
      "name": "DisputeResolved",
      "type": "event"
    },
    {
      "anonymous": false,
      "inputs": [
        {
          "indexed": true,
          "internalType": "uint256",
          "name": "id",
          "type": "uint256"
        },
        {
          "indexed": true,
          "internalType": "address",
          "name": "buyer",
          "type": "address"
        },
        {
          "indexed": true,
          "internalType": "address",
          "name": "seller",
          "type": "address"
        },
        {
          "indexed": false,
          "internalType": "uint256",
          "name": "amount",
          "type": "uint256"
        }
      ],
      "name": "EscrowCreated",
      "type": "event"
    },
    {
      "anonymous": false,
      "inputs": [
        {
          "indexed": true,
          "internalType": "uint256",
          "name": "id",
          "type": "uint256"
        }
      ],
      "name": "EscrowDisputed",
      "type": "event"
    },
    {
      "anonymous": false,
      "inputs": [
        {
          "indexed": true,
          "internalType": "uint256",
          "name": "id",
          "type": "uint256"
        }
      ],
      "name": "EscrowRefunded",
      "type": "event"
    },
    {
      "anonymous": false,
      "inputs": [
        {
          "indexed": true,
          "internalType": "uint256",
          "name": "id",
          "type": "uint256"
        }
      ],
      "name": "FundsApproved",
      "type": "event"
    },
    {
      "anonymous": false,
      "inputs": [
        {
          "indexed": true,
          "internalType": "uint256",
          "name": "id",
          "type": "uint256"
        }
      ],
      "name": "FundsReleased",
      "type": "event"
    },
    {
      "inputs": [],
      "name": "admin",
      "outputs": [
        {
          "internalType": "address",
          "name": "",
          "type": "address"
        }
      ],
      "stateMutability": "view",
      "type": "function"
    },
    {
      "inputs": [
        {
          "internalType": "uint256",
          "name": "_id",
          "type": "uint256"
        }
      ],
      "name": "approveFunds",
      "outputs": [],
      "stateMutability": "nonpayable",
      "type": "function"
    },
    {
      "inputs": [
        {
          "internalType": "address payable",
          "name": "_seller",
          "type": "address"
        },
        {
          "internalType": "uint256",
          "name": "_durationSeconds",
          "type": "uint256"
        }
      ],
      "name": "createEscrow",
      "outputs": [
        {
          "internalType": "uint256",
          "name": "",
          "type": "uint256"
        }
      ],
      "stateMutability": "payable",
      "type": "function"
    },
    {
      "inputs": [],
      "name": "escrowCount",
      "outputs": [
        {
          "internalType": "uint256",
          "name": "",
          "type": "uint256"
        }
      ],
      "stateMutability": "view",
      "type": "function"
    },
    {
      "inputs": [
        {
          "internalType": "uint256",
          "name": "",
          "type": "uint256"
        }
      ],
      "name": "escrows",
      "outputs": [
        {
          "internalType": "address payable",
          "name": "buyer",
          "type": "address"
        },
        {
          "internalType": "address payable",
          "name": "seller",
          "type": "address"
        },
        {
          "internalType": "uint256",
          "name": "amount",
          "type": "uint256"
        },
        {
          "internalType": "bool",
          "name": "isApproved",
          "type": "bool"
        },
        {
          "internalType": "bool",
          "name": "isReleased",
          "type": "bool"
        },
        {
          "internalType": "uint256",
          "name": "deadline",
          "type": "uint256"
        }
      ],
      "stateMutability": "view",
      "type": "function"
    },
    {
      "inputs": [
        {
          "internalType": "uint256",
          "name": "_id",
          "type": "uint256"
        }
      ],
      "name": "raiseDispute",
      "outputs": [],
      "stateMutability": "nonpayable",
      "type": "function"
    },
    {
      "inputs": [
        {
          "internalType": "uint256",
          "name": "_id",
          "type": "uint256"
        }
      ],
      "name": "refundBuyer",
      "outputs": [],
      "stateMutability": "nonpayable",
      "type": "function"
    },
    {
      "inputs": [
        {
          "internalType": "uint256",
          "name": "_id",
          "type": "uint256"
        }
      ],
      "name": "releaseFunds",
      "outputs": [],
      "stateMutability": "nonpayable",
      "type": "function"
    },
    {
      "inputs": [
        {
          "internalType": "uint256",
          "name": "_id",
          "type": "uint256"
        },
        {
          "internalType": "address payable",
          "name": "_winner",
          "type": "address"
        }
      ],
      "name": "resolveDispute",
      "outputs": [],
      "stateMutability": "nonpayable",
      "type": "function"
    },
    {
      "stateMutability": "payable",
      "type": "receive"
    }
  ],
  "bytecode": "0x6080604052348015600f57600080fd5b50336000806101000a81548173ffffffffffffffffffffffffffffffffffffffff021916908373ffffffffffffffffffffffffffffffffffffffff1602179055506119a78061005f6000396000f3fe60806040526004361061008a5760003560e01c80634d68282f116100595780634d68282f14610193578063675ac67a146101bc57806389241f96146101e7578063a5c1674e14610210578063f851a44014610239576100ca565b8063012f52ee146100cf5780630e33599d14610111578063392927631461013a5780634614874e14610163576100ca565b366100ca576040517f08c379a00000000000000000000000000000000000000000000000000000000081526004016100c19061100d565b60405180910390fd5b600080fd5b3480156100db57600080fd5b506100f660048036038101906100f19190611068565b610264565b60405161010896959493929190611100565b60405180910390f35b34801561011d57600080fd5b506101386004803603810190610133919061118d565b6102fa565b005b34801561014657600080fd5b50610161600480360381019061015c9190611068565b610582565b005b61017d600480360381019061017891906111cd565b610794565b60405161018a919061120d565b60405180910390f35b34801561019f57600080fd5b506101ba60048036038101906101b59190611068565b610a34565b005b3480156101c857600080fd5b506101d1610c51565b6040516101de919061120d565b60405180910390f35b3480156101f357600080fd5b5061020e60048036038101906102099190611068565b610c57565b005b34801561021c57600080fd5b5061023760048036038101906102329190611068565b610e06565b005b34801561024557600080fd5b5061024e610f8c565b60405161025b9190611249565b60405180910390f35b60026020528060005260406000206000915090508060000160009054906101000a900473ffffffffffffffffffffffffffffffffffffffff16908060010160009054906101000a900473ffffffffffffffffffffffffffffffffffffffff16908060020154908060030160009054906101000a900460ff16908060030160019054906101000a900460ff16908060040154905086565b60008054906101000a900473ffffffffffffffffffffffffffffffffffffffff1673ffffffffffffffffffffffffffffffffffffffff163373ffffffffffffffffffffffffffffffffffffffff1614610388576040517f08c379a000000000000000000000000000000000000000000000000000000000815260040161037f906112b0565b60405180910390fd5b60006002600084815260200190815260200160002090508060030160019054906101000a900460ff16156103f1576040517f08c379a00000000000000000000000000000000000000000000000000000000081526004016103e89061131c565b60405180910390fd5b8060000160009054906101000a900473ffffffffffffffffffffffffffffffffffffffff1673ffffffffffffffffffffffffffffffffffffffff168273ffffffffffffffffffffffffffffffffffffffff16148061049e57508060010160009054906101000a900473ffffffffffffffffffffffffffffffffffffffff1673ffffffffffffffffffffffffffffffffffffffff168273ffffffffffffffffffffffffffffffffffffffff16145b6104dd576040517f08c379a00000000000000000000000000000000000000000000000000000000081526004016104d490611388565b60405180910390fd5b60018160030160016101000a81548160ff0219169083151502179055508173ffffffffffffffffffffffffffffffffffffffff166108fc82600201549081150290604051600060405180830381858888f19350505050158015610544573d6000803e3d6000fd5b50827ff77ceb5e091d2da041bc760667f9d5fe7a756949eaf29250ad0e60ca6f4c27d9836040516105759190611407565b60405180910390a2505050565b806002600082815260200190815260200160002060000160009054906101000a900473ffffffffffffffffffffffffffffffffffffffff1673ffffffffffffffffffffffffffffffffffffffff163373ffffffffffffffffffffffffffffffffffffffff1614610627576040517f08c379a000000000000000000000000000000000000000000000000000000000815260040161061e9061146e565b60405180910390fd5b60006002600084815260200190815260200160002090508060030160019054906101000a900460ff1615610690576040517f08c379a0000000000000000000000000000000000000000000000000000000008152600401610687906114da565b60405180910390fd5b806004015442116106d6576040517f08c379a00000000000000000000000000000000000000000000000000000000081526004016106cd90611546565b60405180910390fd5b60018160030160016101000a81548160ff0219169083151502179055508060000160009054906101000a900473ffffffffffffffffffffffffffffffffffffffff1673ffffffffffffffffffffffffffffffffffffffff166108fc82600201549081150290604051600060405180830381858888f19350505050158015610761573d6000803e3d6000fd5b50827f2babb5cd458b6d41108d6d793a75e29ca524e7caa20e2da6c994462010920a7260405160405180910390a2505050565b60008034116107d8576040517f08c379a00000000000000000000000000000000000000000000000000000000081526004016107cf906115b2565b60405180910390fd5b600073ffffffffffffffffffffffffffffffffffffffff168373ffffffffffffffffffffffffffffffffffffffff1603610847576040517f08c379a000000000000000000000000000000000000000000000000000000000815260040161083e9061161e565b60405180910390fd5b60006001600081548092919061085c9061166d565b9190505590506040518060c001604052803373ffffffffffffffffffffffffffffffffffffffff1681526020018573ffffffffffffffffffffffffffffffffffffffff16815260200134815260200160001515815260200160001515815260200184426108c991906116b5565b8152506002600083815260200190815260200160002060008201518160000160006101000a81548173ffffffffffffffffffffffffffffffffffffffff021916908373ffffffffffffffffffffffffffffffffffffffff16021790555060208201518160010160006101000a81548173ffffffffffffffffffffffffffffffffffffffff021916908373ffffffffffffffffffffffffffffffffffffffff1602179055506040820151816002015560608201518160030160006101000a81548160ff02191690831515021790555060808201518160030160016101000a81548160ff02191690831515021790555060a082015181600401559050508373ffffffffffffffffffffffffffffffffffffffff163373ffffffffffffffffffffffffffffffffffffffff16827f9405ad0a6208539879349284d71265479b1623846f70303da1f9890d6e8c10a734604051610a22919061120d565b60405180910390a48091505092915050565b806002600082815260200190815260200160002060010160009054906101000a900473ffffffffffffffffffffffffffffffffffffffff1673ffffffffffffffffffffffffffffffffffffffff163373ffffffffffffffffffffffffffffffffffffffff1614610ad9576040517f08c379a0000000000000000000000000000000000000000000000000000000008152600401610ad090611735565b60405180910390fd5b60006002600084815260200190815260200160002090508060030160009054906101000a900460ff16610b41576040517f08c379a0000000000000000000000000000000000000000000000000000000008152600401610b38906117a1565b60405180910390fd5b8060030160019054906101000a900460ff1615610b93576040517f08c379a0000000000000000000000000000000000000000000000000000000008152600401610b8a9061180d565b60405180910390fd5b60018160030160016101000a81548160ff0219169083151502179055508060010160009054906101000a900473ffffffffffffffffffffffffffffffffffffffff1673ffffffffffffffffffffffffffffffffffffffff166108fc82600201549081150290604051600060405180830381858888f19350505050158015610c1e573d6000803e3d6000fd5b50827f952b264c8e0a06cddb4bbaa6d6af1d565145329fd95bbe72cb2b53942b2dc96660405160405180910390a2505050565b60015481565b806002600082815260200190815260200160002060000160009054906101000a900473ffffffffffffffffffffffffffffffffffffffff1673ffffffffffffffffffffffffffffffffffffffff163373ffffffffffffffffffffffffffffffffffffffff1614610cfc576040517f08c379a0000000000000000000000000000000000000000000000000000000008152600401610cf39061146e565b60405180910390fd5b60006002600084815260200190815260200160002090508060030160009054906101000a900460ff1615610d65576040517f08c379a0000000000000000000000000000000000000000000000000000000008152600401610d5c90611879565b60405180910390fd5b8060030160019054906101000a900460ff1615610db7576040517f08c379a0000000000000000000000000000000000000000000000000000000008152600401610dae9061180d565b60405180910390fd5b60018160030160006101000a81548160ff021916908315150217905550827f0649d8e40524587f74eb95a2bc1f96a325cbeb7657bf29340a3c7672c11d874660405160405180910390a2505050565b60006002600083815260200190815260200160002090508060000160009054906101000a900473ffffffffffffffffffffffffffffffffffffffff1673ffffffffffffffffffffffffffffffffffffffff163373ffffffffffffffffffffffffffffffffffffffff161480610eca57508060010160009054906101000a900473ffffffffffffffffffffffffffffffffffffffff1673ffffffffffffffffffffffffffffffffffffffff163373ffffffffffffffffffffffffffffffffffffffff16145b610f09576040517f08c379a0000000000000000000000000000000000000000000000000000000008152600401610f00906118e5565b60405180910390fd5b8060030160019054906101000a900460ff1615610f5b576040517f08c379a0000000000000000000000000000000000000000000000000000000008152600401610f5290611951565b60405180910390fd5b817f7ce7831fed9a800b1aa5e7ca21034bf7b95efc31a196459012cf8b8eb42b7dac60405160405180910390a25050565b60008054906101000a900473ffffffffffffffffffffffffffffffffffffffff1681565b600082825260208201905092915050565b7f446972656374207472616e7366657273206e6f7420616c6c6f77656400000000600082015250565b6000610ff7601c83610fb0565b915061100282610fc1565b602082019050919050565b6000602082019050818103600083015261102681610fea565b9050919050565b600080fd5b6000819050919050565b61104581611032565b811461105057600080fd5b50565b6000813590506110628161103c565b92915050565b60006020828403121561107e5761107d61102d565b5b600061108c84828501611053565b91505092915050565b600073ffffffffffffffffffffffffffffffffffffffff82169050919050565b60006110c082611095565b9050919050565b6110d0816110b5565b82525050565b6110df81611032565b82525050565b60008115159050919050565b6110fa816110e5565b82525050565b600060c08201905061111560008301896110c7565b61112260208301886110c7565b61112f60408301876110d6565b61113c60608301866110f1565b61114960808301856110f1565b61115660a08301846110d6565b979650505050505050565b61116a816110b5565b811461117557600080fd5b50565b60008135905061118781611161565b92915050565b600080604083850312156111a4576111a361102d565b5b60006111b285828601611053565b92505060206111c385828601611178565b9150509250929050565b600080604083850312156111e4576111e361102d565b5b60006111f285828601611178565b925050602061120385828601611053565b9150509250929050565b600060208201905061122260008301846110d6565b92915050565b600061123382611095565b9050919050565b61124381611228565b82525050565b600060208201905061125e600083018461123a565b92915050565b7f4f6e6c792061646d696e2063616e2063616c6c20746869730000000000000000600082015250565b600061129a601883610fb0565b91506112a582611264565b602082019050919050565b600060208201905081810360008301526112c98161128d565b9050919050565b7f457363726f7720616c7265616479207265736f6c766564000000000000000000600082015250565b6000611306601783610fb0565b9150611311826112d0565b602082019050919050565b60006020820190508181036000830152611335816112f9565b9050919050565b7f496e76616c69642077696e6e6572000000000000000000000000000000000000600082015250565b6000611372600e83610fb0565b915061137d8261133c565b602082019050919050565b600060208201905081810360008301526113a181611365565b9050919050565b6000819050919050565b60006113cd6113c86113c384611095565b6113a8565b611095565b9050919050565b60006113df826113b2565b9050919050565b60006113f1826113d4565b9050919050565b611401816113e6565b82525050565b600060208201905061141c60008301846113f8565b92915050565b7f4f6e6c792062757965722063616e2063616c6c20746869730000000000000000600082015250565b6000611458601883610fb0565b915061146382611422565b602082019050919050565b600060208201905081810360008301526114878161144b565b9050919050565b7f46756e647320616c72656164792072656c656173656400000000000000000000600082015250565b60006114c4601683610fb0565b91506114cf8261148e565b602082019050919050565b600060208201905081810360008301526114f3816114b7565b9050919050565b7f457363726f77206e6f7420657870697265642079657400000000000000000000600082015250565b6000611530601683610fb0565b915061153b826114fa565b602082019050919050565b6000602082019050818103600083015261155f81611523565b9050919050565b7f457363726f77206d75737420686f6c6420736f6d652076616c75650000000000600082015250565b600061159c601b83610fb0565b91506115a782611566565b602082019050919050565b600060208201905081810360008301526115cb8161158f565b9050919050565b7f496e76616c69642073656c6c6572206164647265737300000000000000000000600082015250565b6000611608601683610fb0565b9150611613826115d2565b602082019050919050565b60006020820190508181036000830152611637816115fb565b9050919050565b7f4e487b7100000000000000000000000000000000000000000000000000000000600052601160045260246000fd5b600061167882611032565b91507fffffffffffffffffffffffffffffffffffffffffffffffffffffffffffffffff82036116aa576116a961163e565b5b600182019050919050565b60006116c082611032565b91506116cb83611032565b92508282019050808211156116e3576116e261163e565b5b92915050565b7f4f6e6c792073656c6c65722063616e2063616c6c207468697300000000000000600082015250565b600061171f601983610fb0565b915061172a826116e9565b602082019050919050565b6000602082019050818103600083015261174e81611712565b9050919050565b7f4e6f7420617070726f7665640000000000000000000000000000000000000000600082015250565b600061178b600c83610fb0565b915061179682611755565b602082019050919050565b600060208201905081810360008301526117ba8161177e565b9050919050565b7f416c72656164792072656c656173656400000000000000000000000000000000600082015250565b60006117f7601083610fb0565b9150611802826117c1565b602082019050919050565b60006020820190508181036000830152611826816117ea565b9050919050565b7f416c726561647920617070726f76656400000000000000000000000000000000600082015250565b6000611863601083610fb0565b915061186e8261182d565b602082019050919050565b6000602082019050818103600083015261189281611856565b9050919050565b7f4e6f74207061727469636970616e740000000000000000000000000000000000600082015250565b60006118cf600f83610fb0565b91506118da82611899565b602082019050919050565b600060208201905081810360008301526118fe816118c2565b9050919050565b7f457363726f77207265736f6c7665640000000000000000000000000000000000600082015250565b600061193b600f83610fb0565b915061194682611905565b602082019050919050565b6000602082019050818103600083015261196a8161192e565b905091905056fea26469706673582212202db4da572c2746b54eb4425c6c434d4663ecc340db812f07dc5378865821439c64736f6c634300081c0033",
  "linkReferences": {},
  "deployedLinkReferences": {}
}